:020000040800F2
:100000008023002009410008FF8E0008F540000809
:10001000F5400008F5400008F54000080000000029
:10002000000000000000000000000000CD410008BA
:10003000F54000080000000069410008555C000818
:100040002143000821430008214300082143000800
:1000500021430008214300082143000821430008F0
:1000600021430008214300082143000821430008E0
:1000700021430008214300082143000821430008D0
:1000800021430008214300082143000821430008C0
:1000900021430008214300082143000821430008B0
:1000A00021430008214300082143000821430008A0
:1000B0002143000821430008214300082143000890
:1000C0002143000821430008214300082143000880
:1000D0002143000821430008214300082143000870
:1000E0002143000821430008214300082143000860
:1000F0002143000821430008214300082143000850
:10010000214300082143000821430008214300083F
:10011000214300082143000821430008214300082F
:10012000214300082143000821430008214300081F
:080130002143000821430008EF
:1001380081F0004102E000BF83F0004330B54FEA90
:1001480041044FEA430594EA050F08BF90EA020FFD
:100158001FBF54EA000C55EA020C7FEA645C7FEA90
:10016800655C00F0E2804FEA5454D4EB5555B8BFB3
:100178006D420CDD2C4480EA020281EA030382EA24
:10018800000083EA010180EA020281EA0303362DB6
:1001980088BF30BD11F0004F4FEA01314FF4801C89
:1001A8004CEA113102D0404261EB410113F0004F9B
:1001B8004FEA03334CEA133302D0524263EB430352
:1001C80094EA050F00F0A780A4F10104D5F1200EF0
:1001D8000DDB02FA0EFC22FA05F2801841F100014B
:1001E80003FA0EF2801843FA05F359410EE0A5F11F
:1001F80020050EF1200E012A03FA0EFC28BF4CF050
:10020800020C43FA05F3C01851EBE37101F0004505
:1002180007D54FF0000EDCF1000C7EEB00006EEB12
:100228000101B1F5801F1BD3B1F5001F0CD349089C
:100238005FEA30004FEA3C0C04F101044FEA4452F3
:1002480012F5800F80F09A80BCF1004F08BF5FEA7A
:10025800500C50F1000041EB045141EA050130BD5A
:100268005FEA4C0C404141EB0101013C28BFB1F56C
:10027800801FE9D291F0000F04BF01460020B1FAB7
:1002880081F308BF2033A3F10B03B3F120020CDA8A
:100298000C3208DD02F1140CC2F10C0201FA0CF068
:1002A80021FA02F10CE002F11402D8BFC2F1200CCD
:1002B80001FA02F120FA0CFCDCBF41EA0C01904083
:1002C800E41AA2BF01EB0451294330BD6FEA0404CC
:1002D8001F3C1CDA0C340EDC04F11404C4F12002B7
:1002E80020FA04F001FA02F340EA030021FA04F3C9
:1002F80045EA030130BDC4F10C04C4F1200220FA20
:1003080002F001FA04F340EA0300294630BD21FA5D
:1003180004F0294630BD94F0000F83F4801306BF23
:1003280081F480110134013D4EE77FEA645C18BF17
:100338007FEA655C29D094EA050F08BF90EA020FAE
:1003480005D054EA000C04BF1946104630BD91EAA6
:10035800030F1EBF0021002030BD5FEA545C05D1A9
:100368004000494128BF41F0004130BD14F58004E8
:100378003CBF01F5801130BD01F0004545F0FE415C
:1003880041F470014FF0000030BD7FEA645C1ABF91
:10039800194610467FEA655C1CBF0B46024650EAC8
:1003A800013406BF52EA033591EA030F41F40021F4
:1003B80030BD00BF90F0000F04BF0021704730B57A
:1003C8004FF4806404F132044FF000054FF000014F
:1003D80050E700BF90F0000F04BF0021704730B510
:1003E8004FF4806404F1320410F0004548BF4042E5
:1003F8004FF000013EE700BF42004FEAE2014FEA3A
:1004080031014FEA02701FBF12F07F4393F07F4F14
:1004180081F06051704732F07F4208BF704793F017
:100428007F4F04BF41F40021704730B54FF460742A
:1004380001F0004521F000411CE700BF50EA01022D
:1004480008BF704730B54FF000050AE050EA0102D6
:1004580008BF704730B511F0004502D5404261EB46
:1004680041014FF4806404F132045FEA915C3FF487
:10047800D8AE4FF003025FEADC0C18BF03325FEA24
:10048800DC0C18BF033202EBDC02C2F1200300FAD5
:1004980003FC20FA02F001FA03FE40EA0E0021FAFA
:1004A80002F11444BDE600BF70B54FF0FF0C4CF4E8
:1004B800E06C1CEA11541DBF1CEA135594EA0C0F9A
:1004C80095EA0C0F00F0DEF82C4481EA030621EAD5
:1004D8004C5123EA4C5350EA013518BF52EA033510
:1004E80041F4801143F4801338D0A0FB02CE4FF0C2
:1004F8000005E1FB02E506F00042E0FB03E54FF0F2
:100508000006E1FB03569CF0000F18BF4EF0010EE9
:10051800A4F1FF04B6F5007F64F5407404D25FEAE5
:100528004E0E6D4146EB060642EAC62141EA555198
:100538004FEAC52040EA5E504FEACE2EB4F1FD0CDA
:1005480088BFBCF5E06F1ED8BEF1004F08BF5FEA58
:10055800500E50F1000041EB045170BD06F000460A
:1005680046EA010140EA020081EA0301B4EB5C04B7
:10057800C2BFD4EB0C0541EA045170BD41F48011AF
:100588004FF0000E013C00F3AB8014F1360FDEBFD4
:10059800002001F0004170BDC4F10004203C35DAB0
:1005A8000C341BDC04F11404C4F1200500FA05F333
:1005B80020FA04F001FA05F240EA020001F00042D4
:1005C80021F0004110EBD37021FA04F642EB06014A
:1005D8005EEA430E08BF20EAD37070BDC4F10C0474
:1005E800C4F1200500FA04F320FA05F001FA04F238
:1005F80040EA020001F0004110EBD37041F1000124
:100608005EEA430E08BF20EAD37070BDC4F120052E
:1006180000FA05F24EEA020E20FA04F301FA05F296
:1006280043EA020321FA04F001F0004121FA04F23E
:1006380020EA020000EBD3705EEA430E08BF20EA0E
:10064800D37070BD94F0000F0FD101F00046400048
:1006580041EB010111F4801F08BF013CF7D041EACA
:10066800060195F0000F18BF704703F000465200CE
:1006780043EB030313F4801F08BF013DF7D043EA9F
:100688000603704794EA0C0F0CEA135518BF95EA55
:100698000C0F0CD050EA410618BF52EA4306D1D1DC
:1006A80081EA030101F000414FF0000070BD50EAFB
:1006B800410606BF1046194652EA430619D094EA85
:1006C8000C0F02D150EA013613D195EA0C0F05D16F
:1006D80052EA03361CBF104619460AD181EA0301C3
:1006E80001F0004141F0FE4141F470014FF000007B
:1006F80070BD41F0FE4141F4780170BD70B54FF016
:10070800FF0C4CF4E06C1CEA11541DBF1CEA135595
:1007180094EA0C0F95EA0C0F00F0A7F8A4EB050477
:1007280081EA030E52EA03354FEA013100F088806E
:100738004FEA03334FF0805545EA131343EA126337
:100748004FEA022245EA111545EA10654FEA0026EC
:100758000EF000419D4208BF964244F1FD0404F5A5
:10076800407402D25B084FEA3202B61A65EB030501
:100778005B084FEA32024FF480104FF4002CB6EBBE
:10078800020E75EB030E22BFB61A754640EA0C003E
:100798005B084FEA3202B6EB020E75EB030E22BF7E
:1007A800B61A754640EA5C005B084FEA3202B6EBBF
:1007B800020E75EB030E22BFB61A754640EA9C007E
:1007C8005B084FEA3202B6EB020E75EB030E22BF4E
:1007D800B61A754640EADC0055EA060E18D04FEA0C
:1007E800051545EA16754FEA06164FEAC30343EAAC
:1007F80052734FEAC2025FEA1C1CC0D111F4801F79
:100808000BD141EA00014FF000004FF0004CB6E771
:1008180011F4801F04BF01430020B4F1FD0C88BF10
:10082800BCF5E06F3FF6AFAEB5EB030C04BFB6EB1B
:10083800020C5FEA500C50F1000041EB045170BD0E
:100848000EF0004E4EEA113114EB5C04C2BFD4EB3B
:100858000C0541EA045170BD41F480114FF0000EBF
:10086800013C90E645EA060E8DE60CEA135594EA3B
:100878000C0F08BF95EA0C0F3FF43BAF94EA0C0F3E
:100888000AD150EA01347FF434AF95EA0C0F7FF4B3
:1008980025AF104619462CE795EA0C0F06D152EA07
:1008A80003353FF4FDAE1046194622E750EA4106EB
:1008B80018BF52EA43067FF4C5AE50EA41047FF4FC
:1008C8000DAF52EA43057FF4EBAE12E74FF0FF3C61
:1008D80006E000BF4FF0010C02E000BF4FF0010C32
:1008E8004DF804CD4FEA410C7FEA6C5C4FEA430CAB
:1008F80018BF7FEA6C5C1BD001B050EA410C0CBFFA
:1009080052EA430C91EA030F02BF90EA020F00205B
:10091800704710F1000F91EA030F58BF994208BFC2
:1009280090422CBFD8176FEAE37040F0010070477F
:100938004FEA410C7FEA6C5C02D150EA013C07D1D6
:100948004FEA430C7FEA6C5CD6D152EA033CD3D021
:100958005DF8040B704700BF8446104662468C461B
:100968001946634600E000BF01B5FFF7B7FF00284E
:1009780048BF10F1000F01BD4DF808EDFFF7F4FF77
:100988000CBF012000205DF808FB00BF4DF808ED02
:10099800FFF7EAFF34BF012000205DF808FB00BF25
:1009A8004DF808EDFFF7E0FF94BF012000205DF847
:1009B80008FB00BF4DF808EDFFF7CEFF94BF0120FC
:1009C80000205DF808FB00BF4DF808EDFFF7C4FFF5
:1009D80034BF012000205DF808FB00BF80F0004014
:1009E80002E000BF81F0004142001FBF5FEA4103FF
:1009F80092EA030F7FEA226C7FEA236C6AD04FEAFF
:100A08001262D2EB1363C1BFD21841404840414043
:100A1800B8BF5B42192B88BF704710F0004F40F4F5
:100A2800000020F07F4018BF404211F0004F41F411
:100A3800000121F07F4118BF494292EA030F3FD0DD
:100A4800A2F1010241FA03FC10EB0C00C3F12003F0
:100A580001FA03F100F0004302D5494260EB40007F
:100A6800B0F5000F13D3B0F1807F06D340084FEAEA
:100A7800310102F10102FE2A51D2B1F1004F40EBDF
:100A8800C25008BF20F0010040EA03007047490047
:100A980040EB0000013A28BFB0F5000FEDD2B0FAE4
:100AA80080FCACF1080CB2EB0C0200FA0CF0AABF07
:100AB80000EBC25052421843BCBFD04018437047A5
:100AC80092F0000F81F4000106BF80F400000132AB
:100AD800013BB5E74FEA41037FEA226C18BF7FEA82
:100AE800236C21D092EA030F04D092F0000F08BFC4
:100AF8000846704790EA010F1CBF0020704712F0AB
:100B08007F4F04D1400028BF40F00040704712F1E9
:100B180000723CBF00F50000704700F0004343F04E
:100B2800FE4040F4000070477FEA226216BF084684
:100B38007FEA23630146420206BF5FEA412390EA47
:100B4800010F40F4800070474FF0000304E000BF3D
:100B580010F0004348BF40425FEA000C08BF7047EE
:100B680043F0964301464FF000001CE050EA0102B2
:100B780008BF70474FF000030AE000BF50EA0102C7
:100B880008BF704711F0004302D5404261EB4101B4
:100B98005FEA010C02BF84460146002043F0B643D9
:100BA80008BFA3F18053A3F50003BCFA8CF2083AFE
:100BB800A3EBC25310DB01FA02FC634400FA02FC07
:100BC800C2F12002BCF1004F20FA02F243EB02000E
:100BD80008BF20F00100704702F1200201FA02FC70
:100BE800C2F1200250EA4C0021FA02F243EB020063
:100BF80008BF20EADC7070474FF0FF0C1CEAD052A7
:100C08001EBF1CEAD15392EA0C0F93EA0C0F6FD067
:100C18001A4480EA010C400218BF5FEA41211ED045
:100C28004FF0006343EA501043EA5111A0FB013131
:100C38000CF00040B1F5000F3EBF490041EAD37106
:100C48005B0040EA010062F17F02FD2A1DD8B3F182
:100C5800004F40EBC25008BF20F00100704790F0F1
:100C6800000F0CF0004C08BF49024CEA502040EA43
:100C780051207F3AC2BFD2F1FF0340EAC250704709
:100C880040F400004FF00003013A5DDC12F1190F47
:100C9800DCBF00F000407047C2F10002410021FAB9
:100CA80002F1C2F1200200FA02FC5FEA310040F1D1
:100CB800000053EA4C0308BF20EADC70704792F04A
:100CC800000F00F0004C02BF400010F4000F013A82
:100CD800F9D040EA0C0093F0000F01F0004C02BF7D
:100CE800490011F4000F013BF9D041EA0C018FE7EC
:100CF8000CEAD15392EA0C0F18BF93EA0C0F0AD0F2
:100D080030F0004C18BF31F0004CD8D180EA010017
:100D180000F00040704790F0000F17BF90F0004FB0
:100D2800084691F0000F91F0004F14D092EA0C0F92
:100D380001D142020FD193EA0C0F03D14B0218BF25
:100D4800084608D180EA010000F0004040F0FE406B
:100D580040F40000704740F0FE4040F44000704707
:100D68004FF0FF0C1CEAD0521EBF1CEAD15392EA86
:100D78000C0F93EA0C0F69D0A2EB030280EA010C76
:100D880049024FEA402037D04FF0805343EA11110F
:100D980043EA10130CF000408B4238BF5B0042F16D
:100DA8007D024FF4000C8B4224BF5B1A40EA0C0012
:100DB800B3EB510F24BFA3EB510340EA5C00B3EB44
:100DC800910F24BFA3EB910340EA9C00B3EBD10F32
:100DD80024BFA3EBD10340EADC001B0118BF5FEA84
:100DE8001C1CE0D1FD2A3FF650AF8B4240EBC250AD
:100DF80008BF20F0010070470CF0004C4CEA50206E
:100E08007F32C2BFD2F1FF0340EAC250704740F4BC
:100E180000004FF00003013A37E792F0000F00F0AE
:100E2800004C02BF400010F4000F013AF9D040EA2C
:100E38000C0093F0000F01F0004C02BF490011F4C0
:100E4800000F013BF9D041EA0C0195E70CEAD153B8
:100E580092EA0C0F08D142027FF47DAF93EA0C0F9F
:100E68007FF470AF084676E793EA0C0F04D14B0283
:100E78003FF44CAF08466EE730F0004C18BF31F035
:100E8800004CCAD130F000427FF45CAF31F000432F
:100E98007FF43CAF5FE700BF4FF0FF3C06E000BFC8
:100EA8004FF0010C02E000BF4FF0010C4DF804CDEB
:100EB8004FEA40024FEA41037FEA226C18BF7FEAFB
:100EC800236C11D001B052EA530C18BF90EA010FFD
:100ED80058BFB2EB030088BFC81738BF6FEAE1708C
:100EE80018BF40F0010070477FEA226C02D15FEA28
:100EF800402C05D17FEA236CE4D15FEA412CE1D094
:100F08005DF8040B704700BF844608466146FFE75A
:100F18000FB5FFF7C9FF002848BF10F1000F0FBD3C
:100F28004DF808EDFFF7F4FF0CBF012000205DF835
:100F380008FB00BF4DF808EDFFF7EAFF34BF0120BA
:100F480000205DF808FB00BF4DF808EDFFF7E0FF53
:100F580094BF012000205DF808FB00BF4DF808EDA4
:100F6800FFF7D2FF94BF012000205DF808FB00BF07
:100F78004DF808EDFFF7C8FF34BF012000205DF8E9
:100F880008FB00BF4FEA4002B2F1FE4F0FD34FF00B
:100F98009E03B3EB12620DD94FEA002343F00043DE
:100FA80010F0004F23FA02F018BF404270474FF08C
:100FB8000000704712F1610F01D1420205D110F013
:100FC800004008BF6FF0004070474FF000007047C6
:100FD80053B94AB9002908BF00281CBF4FF0FF3198
:100FE8004FF0FF3000F00CB8ADF1080C6DE904CEFD
:100FF80000F023F8DDF804E0DDE9022304B07047CF
:10100800704700BF034613F8012B002AFBD1181ABA
:1010180001387047430803F05533C01A00F03333E2
:10102800800800F03330184400EB10104FF0013303
:1010380000F00F305843000E70472DE9F047864600
:101048008C460846089E154674461946002B40F003
:10105800C2808542B2FA82F245D94AB1C2F1200370
:1010680000FA02FC2EFA03F3954043EA0C0C944074
:101078004FEA154EA8B2BCFBFEF8230C0EFB18CCA9
:1010880008FB00F943EA0C43994528D9EB1808F105
:10109800FF3704D2994502D9A8F102072B44A3EBE4
:1010A8000903A4B2B3FBFEFC0EFB1C330CFB00F0DF
:1010B80044EA0344A04214D92C190CF1FF3304D29A
:1010C800A04202D9ACF102032C44241A43EA074097
:1010D8001EB1D440002334607360BDE8F0874746F2
:1010E800DDE76346F1E792BB431B01214FEA154E4A
:1010F800AFB2B3FBFEFC200C0EFB1C330CFB07F855
:1011080040EA0343984562D9EB180CF1FF3004D24A
:10111800984502D9ACF102002B44A3EB0803A4B212
:10112800B3FBFEFC0EFB1C330CFB07F744EA03443D
:10113800A7424ED92C190CF1FF3304D2A74202D989
:10114800ACF102032C44E41B43EA0040C0E7C2F1BF
:10115800200320FA03F1954090402EFA03F303434D
:101168004FEA154EAFB2B1FBFEFC0EFB1C10190C7A
:101178000CFB07F841EA0041884504FA02F422D939
:1011880069180CF1FF3004D2884502D9ACF102008D
:101198002944A1EB08019BB2B1FBFEFC0EFB1C111C
:1011A8000CFB07F743EA01439F420ED9EB180CF1F9
:1011B800FF3104D29F4202D9ACF102012B44DB1B60
:1011C80041EA004192E76046E3E76146F7E7604697
:1011D800A3E76346B7E7834206D916B90021084654
:1011E8007BE7C6E900E0F9E7B3FA83F78FB98342F2
:1011F80001D3724508D8BEEB020460EB030301205B
:101208009C461EB9002168E73846FAE7C6E9004C53
:10121800F8E7C7F1200CBB4022FA0CF41C432EFA65
:101228000CF120FA0CF3B84001434FEA14490EFAC6
:1012380007F5B3FBF9F81FFA84FE09FB18300B0C0D
:1012480008FB0EFA43EA00439A4502FA07F240D92E
:10125800E31808F1FF3004D29A4502D9A8F1020038
:101268002344A3EB0A0389B2B3FBF9F809FB18334B
:1012780008FB0EFE41EA03418E452CD9611808F19E
:10128800FF3304D28E4502D9A8F10203214443EA70
:101298000040A0FB0298A1EB0E014145CE46434613
:1012A80002D306D14D4504D2B9EB020E68EB040314
:1012B8000138002EA6D0B5EB0E0261EB030101FA4E
:1012C8000CFC22FA07F34CEA0303F940C6E90031A3
:1012D80098E74046C5E74346D9E70000014B01229D
:1012E8001A707047460D0020014B01221A70704792
:1012F800480D0020014B01221A707047470D00204D
:10130800014B01221A707047490D00202DE9F8435E
:101318000F460546002861D0FFF774FE03285DD903
:10132800DFF8BC8000260024AB5D2BB3A3F13009A5
:101338005FFA89F2092A0DD841462046FFF75CFC7E
:1013480004464846FFF704FC2146FFF74DFB0446D8
:101358000136E9E72E2BFBD12E44214D4FF0000832
:10136800A94616F8010F3038C3B2092B26D92046F2
:101378004146FFF739FB04461A492046FFF7F0FCBF
:10138800FFF700FE054664206843FFF7E1FB0146CE
:101398002046FFF727FB1449FFF7E2FC04462846DE
:1013A800FFF7D6FB07F0FB0701462046FFF71CFBBB
:1013B800532F01D100F10040BDE8F883FFF7C8FBC7
:1013C8002946FFF7CDFC01464046FFF70DFB49468D
:1013D80080462846FFF710FC0546C2E70020EBE7E9
:1013E800000020410000C84200007042F0B52049CA
:1013F800204D00244FF0FF304FF0FF326FF4801380
:1014080000260027C5E90067AC61C5E90201C5E906
:101418000423194DC5E90067AC61C5E90201C5E9B6
:101428000423164DC5E90067AC61C5E90201C5E9A9
:101438000423134DC5E90067AC61C5E90201C5E99C
:101448000423104D2C60104D2C60104D2C60104C56
:10145800C4E90001C4E902230E4CC4E90001C4E94F
:1014680002230D4CC4E90001C4E90223F0BD00BF0A
:10147800FFFFEF7FE0020020C0020020A002002052
:1014880080020020440A0020400A00203C0A002074
:1014980070020020600200205002002070B506464D
:1014A8000024B369A34201D800250AE056F83400A5
:1014B80008F055FC38B90B48214607F021F96FF0C0
:1014C8001205284670BD4FF4B01106EBC40006F0B3
:1014D800AEFF054620B10448214607F011F9F0E7B0
:1014E8000134DEE778B100089AB10008F8B506467D
:1014F8000F460024B369A34201D800250DE047FA3E
:1015080004F101F0010106EBC40006F0AFFF054647
:1015180028B10448214607F0F3F82846F8BD0134FD
:10152800E8E700BFBDB100082DE9F04F4648E7B035
:1015380007F0E6F8454807F0E3F8454807F0E0F813
:10154800444808F00CFC30B9434807F0D9F80020AB
:1015580067B0BDE8F08F3F4808F001FC0028F3D0E1
:101568003C4808F0FCFB0028EED03C484FF4B01192
:1015780006F05DFF002801DA3948E6E739484FF4FC
:10158800B01106F054FF0028F6D137484FF4B011D7
:1015980006F04DFF0028EFDB2E4808F0E0FBF8B915
:1015A800324807F0ADF832484FF4B01106F03FFF6B
:1015B8000028E1DB2F484FF4B01106F038FF00286F
:1015C800DADB2D48FFF76AFF0028C0D12B4C2046F4
:1015D80008F0C5FB50B92168294807F091F8B6E72B
:1015E8001C4808F0BCFB0028DAD0DCE74FF4803157
:1015F800244806F01CFF014620B12348062207F0C4
:101608007FF8A4E7A568AE69C6B106214FF0C063AC
:101618004FF0A0722046B04701460028EDD11B4983
:101628001B4B4B6040238B60EB6953B12046012272
:101638009847044680B317482146CEE76FF0570114
:10164800DBE76FF05704F6E7E9B1000818B20008C5
:1016580048B200089CA5000877B2000888AC0008CA
:1016680094B2000890AC000880AC0008ACB2000846
:1016780070AC000868AC0008A80000207CA5000831
:10168800C4B2000878AC0008E5B20008300A0020AF
:10169800091300080BB3000801F072F844F620663D
:1016A8000027B248CDE900670022002305F05AFD63
:1016B8004FF47A720023AE48CDE9006705F052FD79
:1016C8000121AC4806F0D2FEFFF790FE0A94AA4B1F
:1016D8001A781AB100221A7000F0AEFDA74B1A78DA
:1016E800002A37D000221A70A548836840A95B6891
:1016F800984710B9409B5B062CD5A24B93F9004044
:10170800012C40F0E68002221A70FFF76FFE9E4817
:1017180006F0F6FF0021974806F0A8FE21469B48F0
:101728009B4C06F0A3FE00259048CDE900454FF4F8
:101738007A72002305F016FD8D48CDE90045002298
:10174800002305F00FFD934A0023CDE900239248BA
:1017580005F008FD914C2378002B00F07E8340A80B
:1017680000F080FD002800F07883002323709DF8A6
:101778000831012B00F0CA80022B00F0CA804FF01C
:101788008B44BDF90201FFF7E3F98549FFF734FA05
:101798002146FFF7E5FA0B90BDF90401FFF7D8F9E8
:1017A8007F49FFF729FA2146FFF7DAFA0C90BDF9CD
:1017B8000601FFF7CDF97A49FFF71EFA2146FFF730
:1017C800CFFA704BBDF80EA193F900B00D90BAF1A5
:1017D800000F00F0BF80BDF81011BDF81221BDF850
:1017E8001431C1EB0121C2EB0222B1FBFAF1B2FBC9
:1017F800FAF2C9B2D2B29142C3EB0323B3FBFAF3B4
:10180800DBB2C0F08E809942C0F09980BBF1020F24
:1018180000F08280634B089304230A93BDF91601F4
:10182800FFF796F96049FFF7E7F96049FFF798FA7B
:1018380000210546FFF77EFB002840F08E805A49BC
:101848002846FFF795FB002840F08980BDF9000184
:101858008000FFF77DF900210446FFF775FB00289B
:101868007FD152492046FFF779FB00287BD14E49AA
:101878002046FFF7C1F94D49FFF772FA0646BDF851
:101888000A81B8F1000F00F037814046FFF760F990
:101898004749FFF7B1F94FF05E51FFF7ADF94549F8
:1018A800FFF7A0F800210446FFF744FB002840F0AA
:1018B80027813D492046FFF75BFB002840F08C80DC
:1018C8003D492046FFF754FB002840F086800690EB
:1018D8008BE0012439481C7006F012FF2146254888
:1018E80006F0C4FD0021294806F0C0FD44F6206436
:1018F80000251E48CDE900450022002305F032FCF2
:101908001B48CDE900450022002321E74FF08A4417
:1019180037E74FF0894434E7294A136801331360E5
:1019280078E79A420BD3BBF1020F03D0254B0893FB
:10193800022372E7244A136801331360F6E7BBF108
:10194800020F01BF214A136801331360204B08932B
:10195800012362E71F4B089360E7002576E7124DE5
:1019680074E700268BE7104E89E700BFD0010020FE
:101978000802002070AC0008470D0020490D002027
:101988007CA500083001002032B3000868AC0008CC
:10199800E0930400C027090098010020480D0020AA
:1019A80079E91C41D5B100080000C84200F07F4524
:1019B8000000FA420000C0400000C8413FB30008E0
:1019C800440A0020D9B10008400A00203C0A00203F
:1019D800DFB1000847B20008924C93492046FFF750
:1019E800A9FA031E18BF01230693BDF80C010028AD
:1019F80000F08980FFF7ACF88C49FFF7FDF84FF04D
:101A08005E51FFF7F9F88A49FEF7ECFF8949074666
:101A1800FFF7AEFA002840F0DC800490BBF1020F1B
:101A280078D13846FEF7E8FC02460B46824806F0B5
:101A380031FDB8F1000F07D02046FEF7DDFC024665
:101A48000B467E4806F026FD3046FEF7D5FC0246DA
:101A58000B467B48DFF8ECB106F01CFD2846FEF784
:101A6800CBFC02460B46784806F014FD0B98FEF7AF
:101A7800C3FCDBE9002380468946FEF787FF08B1EF
:101A8800CBE90089DBE9022340464946FEF79CFF83
:101A980008B1CBE902890C98DFF8B0B1FEF7ACFCCD
:101AA800DBE9002380468946FEF770FF08B1CBE9E1
:101AB8000089DBE9022340464946FEF785FF08B165
:101AC800CBE902890D98DFF888B1FEF795FCDBE9D0
:101AD800002380468946FEF759FF08B1CBE9008903
:101AE800DBE9022340464946FEF76EFF08B1CBE921
:101AF80002894FF0020B0DE0CDF81880002474E73E
:101B080000230693FAE70123BBF1020F04934FF079
:101B180000078ED04F493046FFF72AFA002861D0D7
:101B28004D493046FFF706FAB0F1000918BF4FF0EB
:101B380001094A492846FFF71BFA002854D04849AA
:101B48002846FFF7F7F9B0F1000818BF4FF0010871
:101B580044490B98FFF7EEF9D0B143490B98FFF7CA
:101B680007FAA8B13F490C98FFF7E4F980B13E495C
:101B78000C98FFF7FDF958B13A490D98FFF7DAF9D3
:101B880030B139490D98FFF7F3F9003818BF012033
:101B9800BBF1010F2AD19DF82810344849B2FFF74C
:101BA800A5FC2846FEF728FC02460B46304806F0FE
:101BB800A7FD3046FEF720FC02460B462D4806F0EE
:101BC8009FFD9DF81831002B5AD12B4806F098FD3F
:101BD800EAE02A493846FFF7ADF9031E18BF01238A
:101BE80004931BE78146A4E78046B1E7049B7BB1D9
:101BF800069B7BB1B9F1000F0ED0B8F1000F0DD0E4
:101C0800BAF1010F0CD9002814BF00210321C4E741
:101C18000421C2E70121C0E70221BEE70621BCE793
:101C28000521BAE70000C8420000964252B82F4387
:101C380066663B42000020C1E0020020C00200208E
:101C4800A002002070020020800200206002002014
:101C5800500200200000A0410000B4420000F04102
:101C68000000A04200007041000070C1A8000020E0
:101C78004AB3000861B3000870B300080000484286
:101C88007F2246A9002520A808F0F7F9382229461E
:101C980012A88DF8FF5008F0E8F920AB012211A82E
:101CA80013F8011B11B10F2A40F0B080129A0E925E
:101CB800002A00F0B3801398002800F0AF80DDF808
:101CC80050A0BAF1000F00F0A980159D002D00F07A
:101CD800A580DDF85890B9F1000F00F09F80DDF87D
:101CE80068B0BBF1000F00F099809AF80010FFF778
:101CF8000DFB99F8001006462846FFF707FB0E9AD9
:101D0800937892F8038011794FF00A0CA8F1300803
:101D1800303B0CFB03830E93537930390546303B37
:101D280010780CFB013351780F9330380CFB0011FD
:101D38009F48A1F12F0806F0E3FC1820DDE90E23E7
:101D480098FBF0FC00FB1C819A4806F0D9FC0021A6
:101D58003046FFF703F908B906F100463046FEF7AA
:101D68004BFB0B469AF8001000910246924806F089
:101D7800C7FC00212846FFF7F1F808B905F100452E
:101D88002846FEF739FB0B4699F8001000910246E9
:101D98008A4806F0B5FC5946894806F0B1FC1899FE
:101DA80011B1884806F0ACFC089B0193BDF81431CA
:101DB800BDF81021BDF80E1183480093BDF812310B
:101DC80006F09EFC0B98FEF717FB80460D98894697
:101DD800FEF712FBCDE902010C98FEF70DFB4B460E
:101DE800CDE900014246794806F08AFC049BBBB164
:101DF800069B1BBB764806F083FC2046FEF7FCFAE0
:101E080002460B46734806F07BFC17E02C2902BFFC
:101E180040F8223003F8015C013241E76E48D5E60C
:101E28006B4806F06DFC3846FEF7E6FA02460B46AC
:101E38006A4806F065FC069B002BDED03846FEF7A4
:101E4800DBFA064620460F46FEF7D6FA3246CDE9BB
:101E580000013B46624806F053FC624B1A78002AA0
:101E680038D000221A70604B93F90030022B31D120
:101E78005E4FD7F818A0BAF1000F31D15C4806F0D0
:101E88003FFC5C4B5C481A685C4B5D495D4D0968DA
:101E9800002A18BF18465C4B1B6800919A423ABF4B
:101EA8005A481C461446A14294BF01462946584C3C
:101EB800584806F025FCD4E90001574B4FF0FF3293
:101EC800FEF75AFD002800F0BB80544806F018FCC5
:101ED800FFF78CFA0021642008F02DF8FFF7F7BB14
:101EE8005046FEF767FA02460B46D7E90001FEF7AF
:101EF80005FC4B4E4B4D4C4CCDE90401B069FEF747
:101F080059FA02460B46D6E90001FEF7F7FBCDE980
:101F18000601A869FEF74EFA02460B46D5E900010C
:101F2800FEF7ECFBCDE90801A069FEF743FA02468B
:101F38000B46D4E90001FEF7E1FB804689463B48A1
:101F4800514606F0DDFBD7E90423CDE90223D7E9A2
:101F580002233748CDE90023DDE9042306F0D0FB4E
:101F6800D6E90423CDE90223D6E902233148CDE995
:101F78000023DDE9062306F0C3FBD5E90423CDE9F8
:101F88000223D5E902232C48CDE90023DDE9082303
:101F980006F0B6FBD4E90423CDE90223D4E90223F1
:101FA8002648CDE9002342464B4606F0A9FB68E7E0
:101FB8007EB3000884B300089BB30008ACB30008E4
:101FC800BDB30008C9B30008F8B3000842B400085C
:101FD8008FB40008E8B40008DAB30008B8B4000801
:101FE80019B50008460D002030010020E00200204D
:101FF80056B50008440A0020E4B10008D5B100082D
:102008003C0A0020DFB10008400A0020D9B10008CE
:1020180070020020A9B60008FFFFEF7FE3B60008B2
:10202800C0020020A00200208002002093B5000812
:10203800BEB50008F8B5000833B600086EB600084B
:10204800104806F05DFBD4E90223CDE900230E48D1
:10205800D4E9002306F054FB0C490D48D1E90223CA
:10206800CDE90023D1E9002306F04AFB09490A48D3
:10207800D1E90223CDE90023D1E9002306F040FB92
:1020880026E700BF1BB7000847B70008600200201A
:1020980064B700085002002081B7000807B560F057
:1020A8007F008DF804008DF80510022201A903486D
:1020B80006F01FFA03B05DF804FB00BFA0AC0008EF
:1020C80073B50446A3685B6C002B3DD1A3685B6BBA
:1020D800002B3FD1A3689B69002BF3D001220DF19F
:1020E8000701204698470128ECD19DF807201C4D90
:1020F800242A04BF00232B7029787E29E2D8194EA0
:102108004B1CDBB20A2A72542B70DBD10022164911
:10211800F254304607F0CDFF20B91449304607F095
:10212800C8FF70B10F48FEF76DFF114B0D4902460D
:102138000646184607F08BFF00220E4B82550122F7
:102148001A7000232B70BDE7204698470028BDD1A0
:1021580002B070BD204698470028BBD1F8E700BF01
:10216800CB0D0020CC0D00209FB70008A6B70008B3
:102178004B0D00204A0D002030B589B00DF1030346
:1021880002930123039301AB059360F07F000723BB
:102198000C468DF80300002502228DF81C3002A998
:1021A800292307488DF81050069206F093F9002865
:1021B800A2BFBDF804302380284609B030BD00BF57
:1021C8005CA6000830B585B00223029303238DF87E
:1021D8000C30044600250948ADF800504023012280
:1021E80001A9CDF804D006F075F9002804DBBDF884
:1021F80000305BBA2380284605B030BD5CA60008D5
:1022080000B589B00DF1070302930123039300235E
:102218008DF810300723CDE905128DF807008DF8E9
:102228001C3002221D2302A9024806F053F909B006
:102238005DF804FB5CA6000810B5084C4FF0FF32AF
:102248004FF0FF33204604F02BF8054804F04AF914
:102258002046BDE8104006F08BB900BF640A002094
:10226800480A002070B5044660B10D4E0D484FF085
:10227800FF324FF0FF3304F013F835782DB90948D1
:1022880006F076F90025284670BD074998222046B1
:1022980007F0DDFE00230348337006F069F9F2E722
:1022A8004C0E0020780A0020AE0C002070B5174CA8
:1022B80086B0064620460D4606F02AF920B914488D
:1022C80006F01EFA00241AE01422002101A807F0E3
:1022D800CCFE0123B340029302230E4E04930C2339
:1022E80003968DF81430A36820465B6801A99847C7
:1022F80044B2002C06DA0848214606F001FA2046C6
:1023080006B070BDB6F900302B80DBE71CA60008CC
:10231800ADB70008AC0C0020CDB700082DE9F04F90
:102328008BB0604C6049A36820461B68984741B24F
:10233800002905DA5D480BB0BDE8F04F06F0E0B9BA
:102348005B4D5C48286006F0E3F828B95A480BB0A2
:10235800BDE8F04F06F0D4B92868836823B19B6CB8
:1023680013B1564900229847286883689B6A03B1CD
:102378009847A36852491B684A48984741B20029C0
:1023880001DA5048D7E7504806F0C2F808B94F4874
:10239800DDE74F4806F0BEF8002801DA4D48D6E7D9
:1023A8004D48DFF838B107F000FD4D4806F0B0F8A9
:1023B800002863D00024012207A90D208DF81C40B5
:1023C800FFF71EFFA04217DA6FF00409444806F031
:1023D8009FF8002855D1434806F092F96FF012088B
:1023E800394806F095F8002840F084803E4806F009
:1023F80087F96FF0120587E09DF81C301A2BE3D19E
:1024080001220DF11E012A208DF81E40FFF7F8FE6B
:102418000028D9DB9DF81E30344803F0FE032A2437
:10242800022208A98DF81E308DF820408DF8213041
:1024380006F05FF80028C7DB0E229BF800308DF805
:1024480020202A488DF82130022208A906F051F8E8
:102458000028B9DB9DF81E3024488DF8204043F051
:102468000103022208A98DF81E308DF8213006F0EC
:1024780040F80028A8DB4FF00009A7E76FF0120921
:10248800A4E7FE231A488DF82030012208A906F097
:1024980030F8B0F10008A3DB142006F06BF84FF019
:1024A80000089DE71CA600082A010020ECB70008D8
:1024B8008C0A0020FCA500080AB80008C9200008FA
:1024C800240100201AB800089CA500083DB800089F
:1024D80098AC000860B80008780A00204D0E00206B
:1024E8005CA600087EB8000899B80008B8AC0008D7
:1024F800B0AC0008954806F00DF8051E80F2DE80A5
:102508009348294606F0FCF8DFF848A292480024D0
:10251800012106F019F80DF112012046ADF812401C
:10252800ADF81440FFF7C2FE05A90120FFF7BEFE73
:102538008948214606F008F8B9F1000F40F0EB8011
:10254800062208A90120FFF75BFEA042C0F2DF8047
:10255800BDF82070BDF82260BDF82440FFBAF6BA75
:10256800E4BABF10B610A4100023ADF81630ADF8C9
:102578001830B8F1000F1BD1F52378488DF82030BA
:10258800012208A905F0B5FF002880F2C7800023C2
:10259800ADF81630F32371488DF82030012208A9D0
:1025A80005F0A7FF002880F2C4800023ADF818309A
:1025B8000023ADF81A30ADF81C30ADF81E30ADF878
:1025C800203065BB664805F0A3FF18B15F480121BC
:1025D80005F0BAFF0DF11A011420FFF7CDFD07A988
:1025E80001901620FFF7C8FD0DF11E010390182079
:1025F800FFF7C2FD08A902901A20FFF7BDFD039A54
:10260800019B13431A46029B1343034307D55448BF
:1026180005F07EFF18B14D48002105F095FF4FF0F9
:10262800FF324FF0FF334F4803F03AFE4E4BBDF8F0
:1026380012201A809BF800201A72BDF816205A81C1
:10264800BDF818209A81BDF81A20DA81BDF81C203F
:102658001A82BDF81E205A82BDF820209A82BDF841
:102668001420DA82414A5F8012789E80DC8002F072
:10267800FF01002A67D07F2203F118003C4907F0C8
:10268800FCFC394B002283F897203A4B354801224D
:102698001A7005F06DFF4FF0FF324FF0FF335046D0
:1026A80003F0FEFD4FF0FF324FF0FF335146324842
:1026B80003F03EFF504605F05BFF27E72F4805F083
:1026C80027FF00283FF495AE01210020FFF7E6FC24
:1026D800002802DA6FF0040516E7032005F04AFF28
:1026E80003210020FFF7DAFC0028F3DBC0210120DA
:1026F800FFF7D4FC0028EDDB01210F20FFF7CEFC0B
:102708000028E7DBA02005F035FF0025FCE64C4655
:102718004E464F4628E72646274625E7142005F06B
:1027280029FF0DF11600FFF74DFD0028BFF632AF67
:102738002DE7142005F01EFF06A8FFF743FD00282B
:10274800BFF636AF31E719769FE700BFA8AC00089F
:10275800B1B80008640A002098AC0008B0AC0008C2
:102768009CA50008780A0020AE0C00204A0D002025
:102778004B0D00204C0E0020480A00205CA60008E3
:1027880010B588B0114807F010FB114807F00DFB91
:10279800104807F02AFB104C104900220023CDE90D
:1027A800062300230522CDE90323CDE90133009355
:1027B8004FF480620A4B204603F02EFF0949204659
:1027C80008B0BDE8104007F01ABB00BF500A00204F
:1027D800640A0020480A002000030020800E002020
:1027E80025230008D8B800082DE9F04F91B08407D8
:1027F800009302F004030293C2F3C20303F101033E
:10280800DDF86880039205460E46059340F0BA81CC
:10281800041D30B1072909D86FF01B0011B0BDE8BD
:10282800F08F01F007063444C6F10806009B4FF00C
:102838000009591E4FF0040A4FF0FF330193CDF8F9
:1028480010904F46CB4653460DB1009A226005982A
:10285800002800F3E8809848009A824203D39748FA
:102868008242C0F0E080039AA4EB050E92074FEA7B
:102878009E0000F103810F2F00F2B180002D00F0BF
:10288800058107F140020DEB020C019A0CF8200CAF
:102898000CF8102C049801300490E7E07A285DD8F1
:1028A8004B280ED8472859D829282DD8252852D062
:1028B80054D820287AD02338D0F1000B4BEB000BEA
:1028C80074E04C382E2849D8DFE800F070484848B2
:1028D80048484848484848484B484848484848486D
:1028E8004859484B4B595959704B6D487048184BCB
:1028F800184848827F4B48484B487F0000204FF0DB
:10290800000B4FF0040A38E02A38C0B2012202FA5C
:1029180000F010EA0E0F49D110F0625C2FD110EAD6
:10292800020B43D06046013C5444B4FBFAF40AFB62
:1029380004F4002D61D0A3EB050CA444B4453FF684
:102948006BAF002868D1042B47D158F8043B2360AB
:10295800043404232AE0019A013A01924FF0000B53
:1029680024E011F8010C6C2834D111F8023C002045
:102978006C2B8346C5D14FF0080A5346D3E708F1BC
:10298800070828F007080734F8E802AB24F0070422
:1029980035B106982044B0423FF63EAFC4E900ABDB
:1029A80008344FF0000B4FF0080A534611F8010F96
:1029B800002878D0BBF1000F7FF470AF2528F5D13F
:1029C800019B013301934FF0010B4FF0040AECE730
:1029D800584694E700208346A5E7082B02D06FF0FD
:1029E80015001BE708F1070828F00708F8E8022394
:1029F800C4E9002308340823D8E768B9042B02D1B6
:102A080008F10408A4E7082BE9D108F1070828F021
:102A1800070808F10808EDE7059A013A059258F801
:102A2800042B009210E7039A900720D5A4EB050E1B
:102A38004FEA9E004FF0010CBEF5007FCFD20F2F5A
:102A4800CDD8F5B107F140020DEB020EC0B2019AE4
:102A58000EF8200C0EF8102CBCF1000F3FF41AAF42
:102A680060F07F000EF8200C09F101090137C5F16B
:102A78000802043406924FF6DA7E97E74FF0000C0E
:102A8800DAE7BCF1000F01D00136EFE70298023611
:102A98000028EBD10098CDE90631FEF7B3FADDE95D
:102AA80006310644E2E7631BB3F5806F97D23DB960
:102AB800A6F10804E018B1E66CA40008F0C5000807
:102AC800029A28609B082B709DF81030C2B1EB70F9
:102AD80085F80290B9F1000F05D008A80022C5F1C9
:102AE800010C97420ED1C5F101030DF120084FF0FA
:102AF800000A01930DF1300B574512D1601B8DE68A
:102B08006B70E5E710F8013B190608D50CEB040ECD
:102B1800B64503F07F033FF67FAE04F8013B013270
:102B2800DFE7B9F1000F03D098F90020002A17DB7E
:102B3800029BD3B11AF80B2004F8012B0022019B49
:102B480018191044B0423FF667AE98F8000004F830
:102B5800010B00990392204607F079FA039A14446E
:102B68000AF1010A08F10108C6E798F8002055F8AB
:102B780022300093029B45F822300098FEF742FA73
:102B8800421CDCE76FF00D0048E600BF2DE9F04F6E
:102B980097B000AF90F802A0D7F880B03B62CBF3B3
:102BA800C0030446FA62BB61894641B9457800789A
:102BB8000AEB800020444D4517D8A0EB0409E378C0
:102BC800FB61BAF1000F02D01BF0010F16D1FB69AF
:102BD80053BBFB6A1BB13A6A4946204698474D46A3
:102BE80028465C37BD46BDE8F08F461C3046FEF7E8
:102BF80009FA0130304409F10109DCE723786268F9
:102C08007A62FA6A9900796104EB8301002A40F03C
:102C180000814D460E4601EB0A094FF000084E456B
:102C28004CD101EB0A0610E01BF0020FD1D023783B
:102C38009A007A6162687A62FA6A04EB8301002A70
:102C480077D14D4601EB0A0690461BF0050F0CBFE5
:102C580002230123FB62FB6906EB430A0BF0020324
:102C6800BB625645BCD016F8021B16F8013C54F856
:102C78002390994B994502D3984B994536D3BB6914
:102C8800002B40D0786A05F014FD00283BD0E946B7
:102C98008AB06A46924B53617B6AC2E906314FF4A7
:102CA800007313848F4B42F8103F8F4800234FF472
:102CB800125100F087FC023DCD46D2E716F8013BE1
:102CC800F96254F82300FEF79DF9D7F88430F96AC1
:102CD80001304BB1D7F8883098453EBFD7F88430DB
:102CE80023F8180008F10108054498E7BB6923B1E7
:102CF800786A05F0DEFC0028C9D11BF0010F05D168
:102D0800FB6AED1AADE7BB6A002BAAD04846FEF76E
:102D180079F9D7F8843053B1D7F8883098453FBF50
:102D2800D7F88420431C22F8183008F1010805441C
:102D380097E7BAF1000F72D01BF0040672D0D046A4
:102D4800002607F1480052463B61B96207F07FF957
:102D5800B96A3B6901EB0A02BA62FA69F969520079
:102D6800FA60BA6A02EB41023A610BF00202BA60F9
:102D78003A69B96A8A4257D162787A621BF0020FBF
:102D880032440CBF4FEA580100211BF0010FD2B2A8
:102D980040F09F801BF0040F14BF40460020BB6129
:102DA8006270A070E1703A6A7969FB6A20469847B8
:102DB800051EFFF615AFBB6923707B6A6370FB695C
:102DC800E37041463A6AFB6A84F802A007F14800BA
:102DD8009847B0F10008C0F2BB807B693A6AA9EB5A
:102DE8000A01C91AFB68C91AD7E90A0398470028D3
:102DF800C0F2B080A84408EB00054FF0000B07F1C3
:102E0800380AB34572D300213A6AFB6A08469847E4
:102E1800E6E656464FF0000807F1380093E75646B5
:102E2800D04697E7B04695E7BA6A12F8021BBA622D
:102E380012F8015C284A54F82500904202D3274A28
:102E480090421ED3BA6932B1786A7B6005F031FCD2
:102E58007B6800288CD1BA6802BB08F1280207F108
:102E6800300C08F10100944407F1580252FA80F03E
:102E780008F102080CF8101C5FFA88F800F8105CDA
:102E880076E7BA693AB1786A7B6005F012FC7B682C
:102E980000287FF46DAF1BF0010F09D006F128025E
:102EA80007F13000711C161806F8205CCEB25FE7F7
:102EB8001BF0040F3FF45CAF08F1280207F1300063
:102EC80008F1010102EB000808F8105C5FFA81F8CC
:102ED8004EE7002063E700BF6CA40008F0C50008B7
:102EE800E3B800080400000134A900081BF80A3000
:102EF80087F8373054F82390D7F884302BB3D7F8B5
:102F080088309B4521D2D7F8843033F81B803A6A41
:102F1800FB6A012107F13700984700281ADB0544AE
:102F2800B8F1000F06D14846FEF76CF800F1010829
:102F38001FFA88F83A6AFB6A4146484698470028CB
:102F480008DB05440BF1010B5BE74FF00008DEE7F7
:102F5800454645E6054643E6014B1860704700BF05
:102F6800C400002080B505460E461746984603F073
:102F780015FE034607F06CFADFF81890044649F886
:102F88000030424630463946A84754F8090001F057
:102F9800D1F800BF08000000034A536823F0020379
:102FA80053600020704700BF002004E0EFF3118059
:102FB800102383F31288BFF36F8F094B1A683AB94D
:102FC800084A116841F4807111601168C905FCD57F
:102FD8001A6801321A6080F31188BFF36F8F704747
:102FE800940A00200004005810B5EFF31184102350
:102FF80083F31288BFF36F8F134B1A68C2B9BFF3FC
:103008005B8F124B012253E8001F002903D143E8CC
:1030180000200028F7D1BFF35B8F04D10C4A0D487C
:10302800022105F08FFE84F31188BFF36F8F10BD66
:10303800012A01BF08490A6822F480720A601A68E6
:10304800013A1A60EFE700BF940A0020900A0020B6
:1030580097B90008A4A9000800040058084B1A688A
:1030680042F400721A601A6842F480621A601A68A0
:1030780042F480721A60034B034A1A60704700BF1B
:10308800004000581401002000093D002DE9F047D8
:10309800DFF85880044607464FF0010914B938464E
:1030A800BDE8F08794FAA4F5B5FA85F509FA05F3B1
:1030B8002E0108EB05156FEA030A24EA03042B7BAB
:1030C800002BEBD058F806301B694BB94644042254
:1030D80073682846196807EA0A0705F0C3FDDDE7A3
:1030E800284698470028D9D1F0E700BFB4A90008BE
:1030F80030B51049104889B0002206F080FF0F4D06
:103108000F4900220023CDE9062300240E23CDE930
:103118000334CDE901440B4B00944FF44072284628
:1031280003F07AFA0849284606F069FE204609B0F5
:1031380030BD00BF5531000828080020900300204A
:10314800C012002071340008D8B90008014803F003
:103158006FB900BF400200202DE9F04780462048A3
:103168000F4605F057FD0646002832D000252846B0
:10317800BDE8F087237B83B12368DB680BB1204669
:103188009847636883F8069023681B69CBB963681E
:1031980004221968204605F065FD013610345445AF
:1031A800E8D3B8F1000FE2D0002DDFD02846FFF7B2
:1031B8006DFF0546002FF7D00021642006F0BBFE06
:1031C800F2E7204698470028E1D009FA06F31D43A4
:1031D800E3E7044CDFF810A005464FF00109DEE7ED
:1031E800A80A0020B4A90008C4A90008014B53F894
:1031F80020007047D4AC000808B5034608462BB138
:10320800044A136000F074FC002008BD6FF015003C
:10321800FBE700BFC800002010B5044C237813B9A1
:10322800034803F005F90123237010BD4E0E00205A
:103238004002002010B504460B4805F0EBFC5CB1D9
:10324800BFF35B8F094B53E8001F013943E80012B5
:10325800002AF8D1BFF35B8F054806F0DCFE05486D
:10326800BDE8104003F0E4B8A00A0020A40A00203A
:1032780028080020400200200020064BBFF35B8F87
:10328800014653E8000F43E80012002AF9D1BFF3C2
:103298005B8F7047A00A002070B5FFF7EDFF084C60
:1032A800084E0546B44200D370BD63685B792BB104
:1032B80023685B6813B12946204698471034F1E724
:1032C800B4A90008C4A9000810B5044C0449204654
:1032D80005F026FB034B1C6010BD00BF5C010020FD
:1032E800C0AC0008980A00200D4A0E48002310B50B
:1032F80013700D4A13600D4A4FF47A711360FFF78B
:103308007BFFFFF7E1FF0A4B0A4918468B4200D3BF
:1033180010BD1A1A5C681211013222711033F5E7D8
:103328004F0E0020378C0008A00A0020A40A0020B5
:10333800B4A90008C4A900080146002201480023D6
:1033480005F00FBB5C010020014805F0A8BB00BFD9
:103358005C010020024B0146186805F0F4BB00BF71
:10336800980A0020014805F029BC00BF5C01002034
:1033780070B5264B1878002846D0FFF7E5FF0546BC
:1033880000283ED1224B234C1B68002B12DD06F08F
:1033980034FE0A220023FDF71BFED4E90032C01ACE
:1033A80040F2E93361EB0201984271F1000101D367
:1033B800FFF772FFD4E9003213F57A7342F1000285
:1033C800C4E90032BDE87040FFF7CCBF63685B79A1
:1033D80023B1236829461B68204698471034B44215
:1033E800F4D32846FFF7B6FFBFF35B8F0A4B53E8C9
:1033F800001F013943E80012002AF8D1BFF35B8FA0
:10340800C0E7064C064EEAE770BD00BF4E0E00202E
:10341800A00A002020080020A40A0020B4A900085F
:10342800C4A9000870B50D4D297861B90120FFF7CE
:1034380093FE0B4C0B4EB44206D3FFF799FF0028BE
:10344800FBD101232B7070BD63685B791BB12368C6
:1034580020469B6898471034EDE700BF4F0E0020C8
:10346800B4A90008C4A9000800212DE9F0470846BE
:10347800FFF772FE044658B34FF4FA784FF000098C
:1034880006F0E6FF1B4B1C4A1B58136033B11B4B5D
:103498001B68092B02DD1A4802F0CAFF194FDFF832
:1034A80060A0002544B12046FFF7F0FD044618B996
:1034B8004FF0FF384FF0FF39FFF75AFF064628B99B
:1034C800B5B942464B46504602F0E6FF3546E9E7B5
:1034D8004FF0FF384FF0FF39D2E72B689B691BB1DB
:1034E80000221146284698471035BD42F5D3E8E733
:1034F800054DFAE7080000009C0A0020A40A0020F5
:1035080040020020C4A90008B4A9000813B518484F
:1035180005F080FB174B1B7873B1EFF31184102370
:1035280083F31288BFF36F8FFFF722FF84F31188AC
:10353800BFF36F8F02B010BD0F4B1B68002BF9D083
:1035480050B900220023CDE900230C4842F2107242
:10355800002303F007FEEDE70928EBD1074806F042
:103568005AFD074802B0BDE8104002F061BF00BF35
:10357800A40A00204F0E00209C0A002028080020E2
:103588004002002010B5064B1B68044698472146A8
:10359800A060044805F064FABDE81040FFF7B6BF24
:1035A800C80000205C010020044A054B9B1AB1EBBF
:1035B800D30F34BF52F83100002070472CA90008FF
:1035C800B4A900082DE9F04F8FB004AFC1F34A2821
:1035D800B8600D4691467B600C0DB8F1000F63D0C2
:1035E800002607F114034FF0040B4FF00A0AC7F83E
:1035F8000C80C7E907667E620193CDF808B0CDF864
:1036080000A007F11C03F96832464846FFF7BEFAE6
:10361800B0F5006F03461CD36C468AB0D9F8041085
:1036280004AB2648C3E9050140F2FF71D9611A4687
:103638004FF400711984224B42F8103F2148334659
:103648004FF41251FFF7BEFFA5462C37BD46BDE823
:10365800F08FC0F30A0804F11700184420F007009F
:1036680080083B60FFF768FE68F35325044690B175
:103678003B68154AC7E9083600F1100107F1140341
:10368800F961CDE900A3CDF808B0F96807F11C038A
:103698004846FFF77BFA68F353257B68B9682A46E2
:1036A800204605F0FFFAD0E704F1170020F00700E4
:1036B8008008FFF741FE0446EDE700BFEDB90008BA
:1036C800040000016CA900087F8C00082DE9F04F68
:1036D80087B0DDE91279DDE9105A04460391934673
:1036E8009846BFB1CDF800903B46524610210020C5
:1036F800CDF81490FFF778F8B0F5006F06460AD3B6
:10370800184A194840F2FF73022107B0BDE8F04F8C
:1037180005F021BB3E4605F11700304420F00700B4
:1037280004F007048008FFF707FE0BF0070BE4001E
:1037380044EA8B1444EA462444EA0554054640B159
:103748003FB1CDF800903B46524631461030FFF766
:103758004BF8039943462246284607B0BDE8F04F88
:1037680005F0A0BA2CBA00086CA90008406820B17E
:10377800034BC01A40F3CF0070474FF0FF3070473B
:103788002CA900080EB403B503AB014653F8042B6B
:103798000448019300F046FF02B05DF804EB03B063
:1037A800704700BFC18D0008CA0605D48B064CBF00
:1037B80002490349FFF7E6BF704700BF46B2000859
:1037C80064BA00082DE9F04F89B09B46149B069314
:1037D8009DF84CA0159B0593169B179E04930446D1
:1037E8000D469046BAF1000F00F09D8006F48073F4
:1037F800079305F035FA06F00209024600283ED084
:1038080091492046FFF7BEFF0746B9F1000F08D0DF
:1038180016F0440F35D18D492A462046FFF7B2FFEE
:10382800074406F0010353B1894B8A4953F82A200B
:10383800894B2046002A08BF1A46FFF7A3FF06F463
:103848008073002B49D006F00803002B63D1B8F130
:10385800000F66D0814942462046FFF793FF054690
:10386800069B3D44002B6DD1049B002B73D1F307BD
:1038780000F1E48031462046FFF796FFD8E007467E
:10388800C3E7774B18680028CAD0764B4FF47A798B
:103898001B68B5FBF3F54FF46163B5FBF0F100FB72
:1038A800115509FB05F54FF03C0CB1FBF3F203FB96
:1038B8001211B5FBF0FEB1FBFCF300FB1E550CFB2F
:1038C800131109FB05F50091B5FBF0F56649CDE943
:1038D80001E52046FFF756FFA2E706F00803EBB123
:1038E800624B634953F82A202046FFF74BFF0546F1
:1038F800B8F1000F05D0594942462046FFF742FF6C
:103908000544BBF1000FABD05A495A462046FFF791
:1039180039FF0544A4E74FF0000BE1E706F008057E
:10392800E6E745469CE7BBF1010F069B06D1002B55
:1039380064D1049B002B7BD000250CE0002BF8D031
:103948004D485CE04D48069B4D49224604F080FEF8
:10395800049B002B68D0DFF82C81DFF82C91049FA2
:103968003146102F204628BF1027FFF71DFF4FF0C4
:10397800000B5D4545DC059B49461A782046FFF754
:1039880001FF4FF0010B1BF0070F03D14146204602
:10399800FFF7F8FE5F453BD9059B494613F80B2016
:1039A8002046FFF7EFFE0BF1010BBBF1100FEAD138
:1039B800364920464FF0000BFFF7E4FE5A46059BB8
:1039C8009A5CA2F120015F2928BF2E2230492046A7
:1039D800FFF7D8FE0BF1010BBBF1100F1DD01BF048
:1039E800070F03D141462046FFF7CCFE5F455A46F4
:1039F800E5D841462046FFF7C5FEEBE71F48554688
:103A0800A1E741462046FFF7BDFE0BF1010BB0E7E9
:103A180020492046FFF7B6FEC5E7059B3B440593C2
:103A2800049BDB1B04939AD1BAF1000F7FF41FAFFC
:103A3800204609B0BDE8F04F05F0B1B9064A05497E
:103A48002046FFF79FFE15E76CBA000870BA000819
:103A5800E4AC000895BA000867BA000898BA0008EC
:103A6800B00A0020AC0A002079BA0008F8AC0008B7
:103A78009CBA0008A2BA0008F78D0008C18D00089A
:103A88002D460008AFBA0008A7BA0008B1BA000866
:103A9800B3BA0008ADBA000873B542F20F738B428F
:103AA80028BF0B4605680F4A04460521684603F0FF
:103AB80097FB63680C495B6806460B22284605F0AD
:103AC80060F963683246694628465B6805F059F92B
:103AD800636806495B681B22284605F052F902B064
:103AE80070BD00BFC3BB0008D2BA0008B6BA000850
:103AF800074A00210123904206D8064A01B901234A
:103B08001360054B1860704740085B000121F2E71D
:103B180040420F00AC0A0020B00A0020F8B5074F59
:103B28000D4604464618B44201D12846F8BD14F89B
:103B3800011BBB6801485B689847F4E7DCA50008EF
:103B4800014B03600020704740AD000808B50348EA
:103B5800034A0021121A05F0C6F908BD50020020D8
:103B6800540E00200748084A084908B5121A05F0FB
:103B7800BCF90748074A0849BDE80840121A05F089
:103B8800B4B900BF0000002050020020F0C50008B2
:103B98000000002000000020F0C500082DE9F047D3
:103BA800064600AF0C46002936D0E9468AB0D1E96E
:103BB8000012A3686D462148A8464FF0050AC5E9DA
:103BC8000501C5E9072348F810AF1D484246002300
:103BD8004FF42151FFF7F6FCCD46D4E9031263698F
:103BE800AD461848C5F810A0C5E90501C5E9072381
:103BF8001348002342464FF42151FFF7E3FCCD461A
:103C0800E369114A0E48012105F0A5F8A3690F4A96
:103C18000B48012105F09FF8012E07D1EFF305832A
:103C28000B4A0748103B314605F095F821463046C7
:103C380002F0AAF9BD46BDE8F08700BF18BB00082E
:103C48008CA9000847BB000876BB000885BB0008A4
:103C5800B3BB000830BFFFF7FDBF00BF2DE9F0413F
:103C68000B4EDFF8308006EB0807CC1B05463246C2
:103C78000949204606F0EBF9A01942460021083C04
:103C880006F0F3F9C5F8804007F10800BDE8F081B7
:103C98000000000004000000C4A90008054B5A6990
:103CA8009B689A421FBF044A536843F0805353608D
:103CB800704700BF800C002000ED00E070B5244C78
:103CC80006460D462348244905F01CF9A36AD90481
:103CD8003CD52048214905F015F91720A36A1A0593
:103CE80004D51C481E4905F00DF91820184CA36A84
:103CF8009B0512D51B49174805F004F9A36BA26A66
:103D0800110409D5184A1348012105F024F81EB1F9
:103D1800A36A23F40043A36219200D4CA36A5A0531
:103D280004D50C48114905F0EDF81A20A36ADB0503
:103D380004D508480E4905F0E5F81B20044A936AA3
:103D480043F47F43936200232B7070BD1620C5E7B0
:103D580000ED00E08CA90008C6BB0008DCBB000829
:103D6800EDBB000800BC000819BC00082EBC000808
:103D780049BC000810B5204C2049214805F0C2F87C
:103D8800A36A990136D51E481E4905F0BBF81E20C6
:103D9800A36ADA0104D51A481B4905F0B3F81F20B5
:103DA800154CA36A1B0304D51548184905F0AAF851
:103DB8002120A36A590304D51148154905F0A2F832
:103DC80022200D4CA36A9A0304D50D48114905F029
:103DD80099F82320A36ADB0304D509480E4905F0A6
:103DE80091F82420044A936A6FEA03436FEA134365
:103DF800936210BD1D20CBE700ED00E061BC000818
:103E08008CA9000879BC00088CBC0008A6BC000876
:103E1800C4BC0008E9BC000803BD00082DE9F8434C
:103E28002F4D804689462F482F49174605F06AF8D6
:103E3800AB6ADA0627D52D492A4805F063F811241C
:103E4800AB6A1B0704D52A49264805F05BF81224FB
:103E5800234DAB6A9E0718D52649224805F052F82B
:103E68006E6BAB6A1C0637D5234A1E4833460121C0
:103E780004F071FFB9F1000F03D0AB6A23F080039F
:103E8800AB62132403E01024DAE76FF01506144D33
:103E9800AB6AD80704D51949124805F033F8142439
:103EA800AB6AD90602D4AB6A9A070BD50C4B5B6890
:103EB8001B0507D54146304600F0E6F910B180F3FE
:103EC80009880224064A936A43F0FF039362002399
:103ED8003B702046BDE8F8836FF01506D1E700BFB8
:103EE80000ED00E08CA900082EBD000844BD0008C4
:103EF800EDBB000877BD00088FBD0008A5BD000810
:103F08002DE9F041664B8AB0D3F8048000AF04462F
:103F1800C8F30805002686F31188BFF36F8F02F0F7
:103F28007F43B3F17F4F07D102F00C03082B12D166
:103F38005C495D4804F0E6FF002634460023FB7127
:103F4800EB1E092B00F28A80DFE803F00A80837CED
:103F580088888888888610074CBF0C460126EDE7BC
:103F6800524951484E4D04F0CDFF0023FB71EB6AD6
:103F78009A0705D54E494C4804F0C4FF002332E0A7
:103F8800EB6A002B01DA4B49F5E7EB6A5B00F5D5E4
:103F98004949454804F0B6FF6B69A26943F4807348
:103FA8006B61BFF34F8FBFF36F8F6B6932F8022CD1
:103FB80023F480736B61BFF34F8FBFF36F8F4DF6A0
:103FC80002739A4208D0AB6ADBB273B3FA1D0121BF
:103FD8002046FFF723FF37E02368384A324801219B
:103FE80004F0B9FE2368FA79DAB907F1080504F193
:103FF800200C206861682A4603C2083464451546C7
:10400800F7D17A6A002E45D0C2F3080121B96FEAC8
:1040180052226FEA42227A6207F108011846FFF736
:10402800BDFD2837BD46BDE8F081AB6A13F47F4F6C
:1040380004D0F91D0120FFF741FE05E0AB6AB3F596
:10404800803F9BD3FFF796FE0346CCE7FA1D00217D
:10405800BEE7F91D0020EEE719498CE7194A1A4B0B
:1040680018F4F87FE8468AB018BF13466A4617491D
:10407800C2E905134FF400731384103D144BD56146
:1040880042F8103F084800234FF41151FFF79AFAFD
:10409800C54673E722F4FF7222F00102BBE700BFB6
:1040A80000ED00E0F2BD00088CA900081DBE000864
:1040B80034BE000855BE000863BE000882BE000872
:1040C8009EBE0008D9BD0008C4BD0008C2BE0008D5
:1040D80004000001044B5A6942F010025A615A69FF
:1040E80022F008025A61704700ED00E0EFF3088003
:1040F800EFF3098101B57246FFF702FF01BD00BF6A
:104108000A4880F30888102080F3118808484FF483
:104118000461401880F30988EFF3148002210843F2
:1041280080F31488BFF36F8F04F0F4FE802300201F
:1041380000160020084B9B6883420BD1EFF30583E0
:1041480043B1064B5A6842F080525A605A6A22F4C8
:1041580000425A6202F028BD800C002000ED00E009
:1041680015498A684FF030001044EFF3098C80E855
:10417800F01F102080F31288BFF36F8F0F4F4FF09E
:1041880000664A698A603E60D2F880000C4C206064
:10419800D2F884000023C2F8843080F3118804B573
:1041A800104600F0D7F8BDE8044002F1300090E86E
:1041B800F01F8CF309887047800C002004ED00E0A4
:1041C800D80A00201EF0040F0CBFEFF30880EFF3AD
:1041D8000980816911F8021C0229FFD001B57246D5
:1041E80004F085FE01BD00BF40B2002807DB044A89
:1041F8004109012300F01F00834042F82130704735
:1042080000E100E040B20028A8BF00F1604001F1E1
:104218000101B8BF064B4FEA0111ACBF00F5614080
:1042280000F00F00C9B2B4BF195480F800137047EA
:1042380014ED00E0044B054A23F07F039360BFF3BD
:104248004F8FBFF36F8F70470000000800ED00E04C
:1042580042F8203C009B42F81C3C0A49019B42F86A
:10426800183C029B42F8143C21F001014FF0807386
:1042780042F8043C42F8081C0023203A0265C0F8C2
:10428800843070476D2F0008094A0346906870B162
:1042980013F1160F006F05D0A0F140029A4205D81D
:1042A800834203D2814228BF002070470020704714
:1042B800800C002008B515460C4A0D4B9060D0F8CC
:1042C80080201A600E4600F045F82C4686F30988CF
:1042D8000020044B98472046002100220023024C6E
:1042E80020470000398F00086D2F0008800C00203F
:1042F800D80A0020014B10221A61704700ED00E037
:10430800044800231021C21801333E2B82F8001301
:10431800F9D1704700E100E008B5EFF30583064ADC
:10432800103B02EBC30152F8330049688847BDE8E7
:104338000840FFF7B3BC00BF7CA60008024B034A45
:104348000348012100F08AB8000001200000002085
:1043580040AD0008026F054B403A1A60044A4021FC
:10436800C3E901121846012100F082B8DC0A0020D6
:1043780000000B1508B503461048D0F89020C2F38A
:104388000722013A934207D90D480E4A012104F049
:10439800E2FC6FF0150008BDC0F898300A6822F0FA
:1043A8001F021A4342F01002C0F89C208A6842F0AB
:1043B8000102C0F8A0201846EDE700BF00ED00E0BC
:1043C80084A90008D9BE0008F0B50E4685B01F467E
:1043D80004460025B5420DDA606810B397B1431E54
:1043E80018420AD0104A11482B46012104F0B3FCA8
:1043F8006FF01502104605B0F0BD1F28F2D92168EC
:104408000B42EFD12368019304F0A6FDA36801A92C
:104418000343D0B20393FFF7ADFF10F1160FE7D0B7
:10442800421C01350C34D5E7FFBE000884A90008FA
:10443800044B0522C3F89420BFF34F8FBFF36F8F4F
:10444800704700BF00ED00E0BFF35F8F024B002212
:10445800C3F89420704700BF00ED00E010B5034C8E
:1044680001232278FFF7B0FF207010BD510E002005
:1044780008B50B4A00231278FFF7A6FF10F1160FB4
:1044880007D0084A0021D2F89030C3F30723984296
:1044980000DB08BDC2F89800C2F8A0100130F2E7AE
:1044A800510E002000ED00E02DE9F043574858492F
:1044B800D0F890300D68C3F307239D4285B000F211
:1044C800A180FFF7C1FF49680022954201F10C0164
:1044D8001AD1504C504F25706846FFF731FBDFF872
:1044E8003C81DFF83C9106460025AE421FD1237877
:1044F80046490020D1F89020C2F3072293427BDB83
:10450800FFF796FF00204CE0C0F8982051F80C3CCB
:1045180023F01F03134343F01003C0F89C3051F8F5
:10452800043C43F00103C0F8A0300132CDE7009805
:1045380000EB05114FEA051CCB683B40B3F5000FB3
:1045480044D00AD8B3F5001F2ED0B3F5800F34D06D
:10455800B3F5801F10D00135C7E7B3F1807F3ED097
:10456800B3F1007FF7D150F80C3088684A6804F03E
:10457800F3FC40F4802009E050F80C3088684A6861
:1045880004F0EAFC40F0885040F43020039001A980
:104598002078CDE90123FFF7EDFE002828DA6FF037
:1045A800150005B0BDE8F08350F80C3088684A68FB
:1045B80004F0D2FC40EA0800E8E750F80C308868BC
:1045C8004A6804F0C9FC40EA0900DFE750F80C30FB
:1045D80088684A6804F0C0FC40F08270D6E750F85A
:1045E8000C3088684A6804F0B7FC40F08870CDE762
:1045F800237801332370AEE7C1F89830C1F8A000E2
:10460800013377E74FF0FF30CBE700BF00ED00E064
:104618004CAD0008510E00200000F0FF000008110A
:1046280000000206F0B587B007460E461446002182
:10463800102268461D4605F018FD02238DF8023049
:104648002A46054B019321466846CDE9047602F0D7
:104658008DFE07B0F0BD00BF818F000808B5024B82
:104668001B689847002008BDE80A0020034B044A4D
:104678001860937843F0020393707047E80A0020AB
:10468800D400002008B50649064821F00701C1F109
:10469800005202F5803203F09EFF002008BD00BFE3
:1046A800C7230020EC0A0020044B184400230133E0
:1046B800994200F8012BFADC704700BF3101002055
:1046C8002DE9F041104F054600264FF001086B78A0
:1046D800F4B2A34201D8BDE8F0812B781C442046EF
:1046E80000F0CEF868B1204600F0EAF857F8343008
:1046F8003BB107EBC40204F01F04516808FA04F048
:1047080098470136E3E700BFF80A0020034670B176
:10471800B0FA80F2C2F11F02D2B206498856064AA0
:10472800D2F880100B43C2F88030FFF75DBDFF223E
:10473800F3E700BF3101002000080058034AD2F80F
:10474800803023EA0003C2F8803070470008005820
:10475800032921D8DFE801F0020C10190F4B1A6861
:1047680022EA00021A605A6822EA00025A60704778
:104778000A4B1A680243F5E7084B5A6802435A6025
:104788001A6822EA00021A607047044B1A6802434A
:104798001A605A6810435860704700BF00080058F4
:1047A80030B5B0B1B0FA80F3C3F11F03DBB20B48E8
:1047B80050F833408C4204D100EBC3056D68954234
:1047C80005D044B940F8331000EBC3004260002024
:1047D80030BDFF23EBE76FF00F00F9E7F80A002080
:1047E80060B1B0FA80F3C3F11F03DBB2044A0021C1
:1047F80042F8331002EBC30251607047FF23F5E71C
:10480800F80A002000F00302043292000F239340BC
:1048180043EA900000F003030233064A52F82320CB
:10482800030C02EA104093FAA3F3B3FA83F3D840D7
:10483800704700BF0000014013B50E4C204605F03C
:104848008EFA40B90C480D4A012104F07BFA6FF04A
:10485800120002B010BD4FF480735422CDE900233A
:10486800A3681B681BB1694620469847F1E76FF0BB
:104878005700EEE7FCA400083CA9000846BF000862
:1048880000F01F0201213F2808B501FA02F2034691
:1048980005D90848084A04F05EFA002008BD074B0D
:1048A8001F2894BFDB68DB6A9A430CBF01200020F5
:1048B800F4E700BF3CA9000865BF000800080058DD
:1048C80000F01F0201213F2808B501FA02F2034651
:1048D80006D90748074A04F03EFA6FF0150008BDEC
:1048E8001F28054B02D8DA600020F8E7DA62FBE7F8
:1048F8003CA9000865BF000800080058F8B54668DC
:1049080096F83C30DB0609D40B799F0606D5394961
:10491800394804F0B3FB6FF01500F8BD0B78092B8C
:1049280001D03649F4E74B78042B01D03449EFE73E
:104938000C7949883268056904F01F04E9B143F627
:10494800FF73994222D08B0B032B05D02D492A489F
:1049580004F094FB2C49DBE7DFF8B0C006F126072A
:10496800002337F8020F40EA0C0080B2814205D0DC
:104978000133082BF5D12649E9E70B4696F938109B
:10498800012905DC002933DB0020C6E70723F5E70A
:1049980002292DD195F9A6104E1C01D099420ED1AD
:1049A80085F8A63051694FF48070A04021EA0001D3
:1049B8005161516921F007010B435361E4E795F90F
:1049C800A710481C01D0994210D185F8A730556925
:1049D80010484FF48071A14068400140694051611E
:1049E800516921F0700141EA0313E6E70A49AEE78D
:1049F8000A49ACE7A5BF00082CA90008D5BF0008E4
:104A0800EABF000804C00008B1C0000800C0FFFFEA
:104A18002CC0000804FFFF034FC000087BC000083B
:104A280038B5314C2368DA0605D510232F493048AC
:104A3800236004F023FB23685B0745D5226C2D4CCB
:104A4800D4F89430991CC4F894101A8094F8A530BE
:104A580094F8A4200133DBB29A4284F8A5302546A5
:104A680032D1002384F8A530636E9BB3E36FB4F8AA
:104A780088203BB1204804F164019847012811D0EF
:104A8800022822D0B4F88830B4F884209A421CD97D
:104A98000133A4F88830A36F4BB9BDE838401548F6
:104AA80004F0FDBAD4F89830C4F89430F3E7BFF3B3
:104AB8005B8F55E8003F5A1E45E800210029F8D1D0
:104AC800BFF35B8F012BE8DC38BDA36F13B10B4834
:104AD80005F0A1FA4FF6FF73A4F8A6300848BDE820
:104AE800384001F0A5BC00BF00240140C7C0000841
:104AF8002CA90008000000201CA6000808000020BF
:104B08005000002073B5466835680446284604F00E
:104B180005FB606804F0B6FA96F83C309B0602D5AF
:104B2800606804F0AFFA0D4861688368DB68083193
:104B38007BB90B490B4804F0A1FA019B1BB90A4940
:104B4800084804F09BFA284602B0BDE8704004F01B
:104B5800CCBA01AA98470028EFDAEAE7FCA40008D3
:104B680040C100082CA900085AC100082DE9F74FD8
:104B780046680769D6F800800546DFF834A1504634
:104B880005F0EDF848B94B494B4804F077FA6FF057
:104B98001204204603B0BDE8F08F4FF6FF73C7F844
:104BA8009050A7F8A6306C68DAF808B02146DBF810
:104BB800003051F8089B5BB350469847024638BB13
:104BC80094F83C30D9071AD494F83C309A0708D5A1
:104BD800DBF8183004F11801D3B1354800229847A2
:104BE800B0B9226A22F00043B3F1804F28D1D9F836
:104BF800103023F040431343C9F8103008E0DBF8C5
:104C0800183004F110011BB1504698470028DBD03A
:104C1800706A01AA002104F018FE041E07DB019B3C
:104C280000221979186800F023FD041E18DAA31C65
:104C380016D0224A20482346012104F08CF8A8E720
:104C4800B2F1004FD3D01E49D1F8083723F47013BE
:104C58001343C1F80837D9F8103023F04043CBE7A5
:104C680096F93B3083B1D8F8083023F0104323F08D
:104C7800170343F08053C8F8083096F93B30012BEE
:104C880002D1142005F045F8736803B19847284607
:104C9800FFF738FFD8F80C3023F45C63C8F80C3001
:104CA800BB6C1BB907F1400001F0C2FB002470E7A0
:104CB800FCA400086EC100082CA900088DC10008DA
:104CC800002001402DE9F04F036985B006460D46E6
:104CD80003F140084FF0FF324FF0FF33404601F038
:104CE800DBFB73683469D3F80090AB68C4F8943080
:104CF8006F68C4F8A0703846FCF78CF9002384F874
:104D0800A40084F8A53067B98249834804F0B6F94D
:104D18006FF01504404601F08BFB204605B0BDE856
:104D2800F08F7268106892F93D103C328B4202DBBA
:104D380011D17A49E9E752F8047F95F810C0BCEB25
:104D4800D74F32D1FBB2FF2BC7F30422C7F3423B44
:104D5800C7F3024A2BD133697068D3F8A0204FF00B
:104D6800010C0023002A3BD190F939204AB9026886
:104D7800C3F31103936213689904FCD54FF40053ED
:104D8800136094F8A4202B68520013B19B8903FB8D
:104D98000222EB6893422FD25F4800920121604AB9
:104DA80003F0E3FF6FF00B04B4E70133BEE7C35829
:104DB8000392D3400BEA03039A45CCD004F0AEF932
:104DC8007368039A196807F0FC070BFA02FBCB59C2
:104DD8000AFA02FA23EA0B0343EA0A03CB51BAE7B9
:104DE80092FAA2F1B1FA81F10CFA01F747EA81616E
:104DF8000B4322EA0702B5E7D6F804B095F811A0EC
:104E0800DBF80000BAF1000F55D10369DA0705D5C0
:104E180004F084F9036923F001030361AB7C13B147
:104E28003046FFF76FFE484604F05FF91023C9F8D3
:104E38000030D9F8043043F00403C9F804302F4691
:104E48000FCF04F164060FC63B6833600026266660
:104E58002B68002B5AD00FCB04F1780585E80F009A
:104E68006566A4F88860002850D0BFF35B8F54E8CB
:104E7800003F44E80062002AF9D1BFF35B8FA06FBE
:104E8800633046F1000164220023FCF7A1F80022F8
:104E9800CDE90001002304F1080002F063F94FF0A6
:104EA800FF324FF0FF3304F1500001F0F5FA00B182
:104EB8002066246E2EE7BAF1080F25D80369DB07B0
:104EC80005D404F02BF9036943F001030361154B82
:104ED80053F82A709BF93A30012B9FD1124B53F8A3
:104EE8002AA0036903F01C039A4504D1036903F45B
:104EF800F0739F4292D004F011F9036947EA0A0758
:104F080023F4FE733B4388E70849FEE6204604F095
:104F1800C6F8C4E7ABC100082CA90008C0C1000846
:104F2800D3C1000800AE0008DCAD0008F8C10008D5
:104F380038B5294B18680B88C3F30B030B2B0D46A8
:104F4800144622D813B96FF085002FE0013B0A2BD5
:104F5800F9D801A252F823F0A94F0008CB4F000856
:104F68008D4F0008C34F0008C74F0008A94F00081D
:104F7800A94F0008A94F00084F4F0008B74F000875
:104F8800B74F00084FF4FA400AE003F6B873C3F3CA
:104F98000B031C2BD7D8114A22FA03F3DB07D2D50F
:104FA80020602B68B3F5805F0ED2002038BD00F07A
:104FB800E1F8062358434008F2E70948F0E70020E3
:104FC800EEE74FF40040EBE7C3F313330133B0FBD4
:104FD800F3F02060E9E700BF14010020110111116E
:104FE8000024F40070B5604D04F040F9284604F040
:104FF8003CF900F0F9FE4FF0B0435C4AD3F80831B1
:1050080003F00F0352F823601368B0FBF6F6B5FB04
:10501800F3F5AE4202D2284600F054FF04F09BF8A4
:10502800012809D04FF0B042136843F4807313602D
:1050380004F091F80128FBD14FF0B044D4F8943033
:1050480043F00103C4F89430D4F894309B07FBD59F
:10505800FDF7ACFFD4F8903043F00103C4F890306A
:105068004FF0B043D3F890209407FBD5D3F89020A5
:1050780042F08002C3F890204FF0B044D4F890304A
:105088001805FBD5FDF7B0FFA36803F00C030C2B44
:105098001CD104F060F8012807D0236843F480731A
:1050A800236004F058F80128FBD14FF0B0439A6808
:1050B80022F0030242F001029A609A6802F00C02A0
:1050C800042AFAD19A6822F0F0029A604FF0B044AC
:1050D800236823F08073236023689901FCD4E36874
:1050E80023F0606343F00073E360E36843F0807388
:1050F800E36000F043F8236843F0807323604FF0C7
:10510800B0431A689201FCD59A6822F0F0029A60BE
:105118009A6842F003029A604FF0B042936803F035
:105128000C030C2BFAD1AE4202D3284600F0CAFE7B
:105138000F4B0D4A1A604FF0B04300209A6822F4D2
:10514800E0629A609A6822F460529A60D3F8082163
:1051580022F0F002C3F80821D3F8082122F00F0248
:10516800C3F8082170BD00BF006CDC0248B000081D
:1051780014010020004870470024F4004FF0B043A9
:105188000549DA681140054A0A43DA60DA6842F0EC
:105198008052DA60704700BF8C80FF1F0206002033
:1051A80008B5074804F0DBFD38B10648FFF75EFA9A
:1051B8000448FDF7D1FE002008BD6FF01200FBE7A0
:1051C800DCA50008D15100080A2838B5074D044667
:1051D80004D1AB680D215B6828469847AB68034843
:1051E8005B68E1B29847204638BD00BFDCA50008DF
:1051F8002DE9F843D0F80480D0F81090D8F80800CA
:1052080017460D461E4603F00BFFB7F5001F044670
:1052180016D12846D8F80840FFF7F4FA84420CD192
:10522800294603F0FDFE0446FFF788FA2046FFF7FB
:10523800D7FA00212046FFF78BFA0020BDE8F88353
:10524800B7F5800F20D0B6F1806F19D0B6F1C06FD6
:1052580018D0B6F1007F1AD1022610494A462046D6
:10526800FFF79EFAB0B9D8F80810284603F0DDFE1B
:1052780020463146FFF76CFA2046FFF747FADCE78D
:105288000126EAE70326E8E76FF08500D6E76FF026
:105298001500D3E76FF00F00D0E700BFE3940008D4
:1052A80038B50369044658600A4D284604F057FD8E
:1052B80060B1AB6861681B680C3123B12846984718
:1052C80000EAE07038BD6FF05700F9E76FF01200A0
:1052D800F8E700BFFCA4000808B5044A0448012107
:1052E80003F030FD6FF0040008BD00BF6DC2000878
:1052F80054A9000898B542680369D26883F8521027
:1053080000AF29B9136823F440131360BD4698BD54
:105318006C468AB003686A460848D161C2E9050349
:105328004FF400731384064B42F8103F05480023DE
:105338004FF41151FEF746F9A546E7E78BC200087E
:105348000400000154A90008F7B50446436806693B
:105358001C48DD680F4659688368DB6800220192A3
:105368004BB9194A1948012103F0ECFC6FF0040409
:10537800204603B0F0BD01AA98470028F1DB376248
:1053880006F110074FF0FF324FF0FF33384601F0B7
:1053980083F82B6823F001032B60204696F85210FF
:1053A800FFF7A8FF2046019900F0B6F896F85130AB
:1053B80004461BB12B6843F001032B60384601F00B
:1053C80037F8D5E7FCA400089FC2000854A90008D4
:1053D80070B50446466805694FF0FF32002128463B
:1053E80004F0EAFC336820469847002385F85030DB
:1053F80085F852300122114605F1100004F0DCFC5A
:10540800224804F0ACFC40B9214A2248012103F0AB
:1054180099FC6FF01204204670BD204600F048F851
:1054280033691D4A934224D018D81C4A934222D08B
:105438001B4A934221D001211A4A164803F082FCE4
:105448000021204641F01001FFF77EFF041E18DA04
:10545800154A1048012103F075FCDCE7134A934212
:105468000DD002F5C31202F520629342E3D10A215E
:10547800E7E70621E5E70221E3E70421E1E7082160
:10548800DFE7012385F850300024C4E7FCA40008B6
:105498006EC1000854A9000840420F00A086010010
:1054A800801A0600CDC20008E8C2000840E13300B7
:1054B80037B5456801AA6869002104F0C6F9041ED9
:1054C80007DB019B00221979186800F0D1F8041E47
:1054D80008DA0D4A0D482346012103F03CFC20461A
:1054E80003B030BD0A48696883681B683BB9094A3C
:1054F8000648012103F026FC6FF00404EFE7984703
:1055080004460028EBD0F2E729C300085CA900088C
:10551800FCA4000847C300082DE9F84F4768D0F8F5
:105528001090D7F80C80484A484B0C460025F9697A
:10553800A9420FD8D9F82030C3F34203012B45D034
:10554800022B72D0424A4348012103F0FBFB6FF063
:10555800150028E0D7F818B03F480C266E430BEB2F
:10556800060ADAF80410814226D01ED83B48814248
:1055780024D03B48814223D00121364803F0E2FB86
:10558800314A324B0021D9F82000C0F34200B0EB79
:10559800510F19D15BF80610A14215D1DAF808307D
:1055A800C8F810300020BDE8F88F2E48814209D095
:1055B8009942E1D10A21E6E70621E4E70221E2E780
:1055C8000421E0E70821DEE70135B0E741F25C2C71
:1055D8004FF47A6740F2E2464FF4FA75224B022103
:1055E8004A1EB4FBF2F2B3FBF2F2B7FBF2F0013859
:1055F800FF2823D8BCFBF2FE0EF1FF3EBEF1FF0FE1
:105608001CD8B5FBF2F9B9F10F0F17D8B6FBF2F2B7
:10561800013A0F2A12D802394EEA094343EA0173C4
:1056280043EA025343EA0023BAE740F2145C4FF41A
:1056380016774FF4FA7640F27715CFE70131112942
:10564800CED10A4A7FE700BFCDC20008404B4C00CC
:1056580077C3000864A9000840420F00A086010033
:10566800801A060040E1330000CA9A3BF2C30008E2
:105678002DE9F0471E4F044600EBC1060025B44251
:1056880001D1002014E02068C30600F01F0911D4DE
:10569800656845F02005C0F3481AC0F3442019286E
:1056A80023D857F82080B8F1000F0DD16FF0120001
:1056B800BDE8F087B9F1100F04D0B9F1110FEAD1A4
:1056C8006568E8E73025E6E7404604F048FB00282F
:1056D800ECD04B462A460AF00F01404603F013FF70
:1056E800002804F10804CADAE2E76FF01500DFE7E2
:1056F80004AF0008012912D0022907D089B900682F
:10570800094BC01A18BF0120000370470068064BF8
:10571800984214BF4FF440504FF400507047002097
:1057280070474FF4005070470080004043681B6882
:1057380003F1080252E8002F42F0010203F10800C9
:1057480040E800210029F3D1094A934203D0A2F589
:105758007442934203D15A6842F040025A6053E8B7
:10576800002F42F4807243E800210029F7D17047E6
:105778000038014043681B6803F1080252E8002F13
:1057880022F0010203F1080040E800210029F3D1CA
:10579800094A934203D0A2F57442934203D15A684E
:1057A80022F040025A6053E8002F22F4807243E846
:1057B80000210029F7D170470038014070B51D4617
:1057C800094B002633F812203346FBF701FC090287
:1057D80041EA10616C08000220182A46334641F15C
:1057E8000001FBF7F5FB70BD60B100082DE9F0433F
:1057F80083B043680269D3F8008000AF06460C46C0
:1058080000293FD01068D9688368DB686BB13A1DFE
:105818009847051E0CDA354A3548012103F092FAFB
:1058280028460C37BD46BDE8F0836FF05705F2E710
:10583800304B984549D1D7F80480DFF8BC90002553
:105848002346AAB240460021FFF7B8FFA0F54070F2
:1058580048451AD901350C2DF2D16D468AB0336806
:105868006A462649D461C2E905134FF400731384CC
:10587800234B42F8103F1E4800234FF41151FDF707
:10588800A1FEAD466FF01505CAE71A4EF36A23F07C
:105898000F032B43F3621B4B33F8152000231946E3
:1058A8004046FBF795FB090241EA106163080002D4
:1058B800C01822464FF0000341F10001FBF788FBB6
:1058C800C0F31300F0600025AAE7D8F8003023F4ED
:1058D8000043C8F800307B6803EB5403B3FBF4F3D0
:1058E8000F2BBAD99BB2C8F80C30ECE79FC200085E
:1058F800ACA9000800800040FFFC0F0036C4000877
:105908000400000160B100082DE9F84306460A7951
:105918004068336904685F68012A0D461AD0931EEF
:10592800D3F1000848EB03084FEA88286979FFF7A4
:10593800E1FE95F80690B9F1020F03460DD0B9F1D2
:10594800040F0ED0AAB1033A012A0CD86FF08500D3
:10595800BDE8F8834FF4C068E8E73AB94FF08050E3
:1059680008E0002AF2D14FF4805003E0033A012AFC
:10597800ECD90020B3F5805F30D0B3F5405F2FD06D
:10598800002B0CBF012303239942DFD1414603F0CA
:10599800A7FF8145DAD1EB7963B1012B22D1134BF3
:1059A8009C4207D0A3F574439C4203D003F570537F
:1059B8009C42CBD1236823F001032360294630465B
:1059C80004F008F90028C1DB236843F001032360D1
:1059D80095E8030087E803000020B9E70023D3E730
:1059E8000223D1E7032BDAD0B0E700BF003801402B
:1059F8002DE9F04383B00469466805466A4820608B
:105A080000AF04F0ACF958B9684A6948012103F0BD
:105A180099F96FF0120420460C37BD46BDE8F083B3
:105A28002068F16883681B683BB9624A60480121B5
:105A380003F088F96FF05704EDE79847044600BB78
:105A4800306A3A1D002103F000FF041EE3DB7B6887
:105A5800002219791868FFF70BFE041EDBDBD5F866
:105A680004802B69D8F80040D3F80490236823F009
:105A780001032360D8F8040004F071F948B94E4ACC
:105A8800C3E74C4A4A48012103F05CF9002CC2DB09
:105A9800D6E7D8E901018368DB6803B1984754E881
:105AA800003F43F00C0344E80032002AF7D149468E
:105AB800284604F08FF8002802DA6FF01504AAE7E8
:105AC80098F814301BB1A36843F00803A36098F852
